S010000074776F5F6C6564732E73726563B3
S11300000C9434000C943E000C943E000C943E007E
S11300100C943E000C943E000C943E000C943E0064
S11300200C943E000C943E000C943E000C943E0054
S11300300C943E000C943E000C943E000C943E0044
S11300400C943E000C943E000C943E000C943E0034
S11300500C943E000C943E000C943E000C943E0024
S11300600C943E000C943E0011241FBECFEFD8E048
S1130070DEBFCDBF0E9440000C945D000C940000D4
S113008084B1806284B985B18F7D85B987B180627E
S113009087B988B1806288B92FEF89E698E1215049
S11300A080409040E1F700C0000095B180E29827BD
S11100B095B998B1892788B9EFCFF894FFCF9E
S9030000FC
