S00B00006932632E737265631B
S11300000C9434000C9451000C9451000C94510045
S11300100C9451000C9451000C9451000C94510018
S11300200C9451000C9451000C9451000C94510008
S11300300C9451000C946C000C9451000C945100DD
S11300400C9451000C9451000C9412010C94400136
S11300500C9451000C9451000C9451000C945100D8
S11300600C9451000C94510011241FBECFEFD8E022
S1130070DEBFCDBF11E0A0E0B1E0ECEBF3E002C0E5
S113008005900D92A832B107D9F721E0A8E2B1E0BA
S113009001C01D92AD36B207E1F70E9453000C94E3
S11300A0DC010C9400000E94E20087E690E00E94CC
S11300B06A01E1E8F0E080818A7F80838081826048
S11300C08083EFE6F0E0808181608083789482E031
S11300D091E00E949A01FFCF1F920F920FB60F92E8
S11300E011241F932F933F934F935F936F937F93A9
S11300F08F939F93AF93BF93EF93FF93CF93DF932C
S113010000D0CDB7DEB780E390E39A8389838091F2
S11301100101823099F0833019F18130D1F5809159
S113012000018F5F80930001883720F482E0809380
S1130130010132C087E0809300012EC0809100014C
S1130140880F0E94F100182F0E940E01111104C0A3
S113015083E08093010120C081E0809301011CC0F1
S113016080E291E00E949A018091000140E1BE0189
S11301706F5F7F4F90E00E94A701CE0101960E941D
S11301809A018DE191E00E949A0181E0809301013E
S113019003C081E0809301010F900F90DF91CF9114
S11301A0FF91EF91BF91AF919F918F917F916F914B
S11301B05F914F913F912F911F910F900FBE0F9020
S11301C01F90189587B18F7C87B988B1806388B9EF
S11301D0E9EBF0E080818C7F808388E98093B8002C
S11301E0089594EA9093BC009091BC009923E4F79D
S11301F08093BB0084E88093BC008091BC0088237A
S1130200E4F78091B900887F883121F0803421F4AB
S113021080E0089580E0089581E0089584E9809362
S1130220BC0008951F920F920FB60F9211242F93C2
S11302308F939F93EF93FF938091C0002091C6000A
S11302408C71E0912A01EF5FEF7190912901E91718
S113025039F0E0932A01F0E0E35DFE4F208301C012
S113026082E090912801892B80932801FF91EF91DE
S11302709F918F912F910F900FBE0F901F90189503
S11302801F920F920FB60F9211248F939F93EF93A7
S1130290FF9390912C0180912B01981769F0E091C4
S11302A02B01EF5FEF71E0932B01F0E0E35BFE4F76
S11302B080818093C60005C0E1ECF0E080818F7DF1
S11302C08083FF91EF919F918F910F900FBE0F90BC
S11302D01F90189510922C0110922B0110922A0154
S11302E010922901282F392F33231CF422E0209364
S11302F0C00090789093C5008093C40088E98093EF
S1130300C10086E08093C200089520912C012F5FE4
S11303102F7190912B012917E1F3E22FF0E0E35BB9
S1130320FE4F808320932C01E1ECF0E08081806219
S113033080830895CF93DF93EC0103C021960E943C
S1130340850188818111FACFDF91CF910895BB2770
S11303504A3031F4992322F4BDE2909581959F4F60
S11303600C94B301BB27FB015527AA27880F991FBB
S1130370AA1FA41710F0A41B83955051B9F7A05DD0
S1130380AA3308F0A95DA193009779F7B111B1934D
S11303901192CB010C94CC01DC01FC01672F71910B
S11303A07723E1F7329704C07C916D937083629157
S10F03B0AE17BF07C8F30895F894FFCF00
S11303BC07010D0A5363616E204932432D62757334
S11303CC20666F7220646576696365733A0D0A0062
S10B03DC416464723A20000040
S9030000FC
