S00E0000627574746F6E2E737265637A
S11300000C9434000C943E000C943E000C943E007E
S11300100C943E000C943E000C943E000C943E0064
S11300200C943E000C943E000C943E000C943E0054
S11300300C943E000C943E000C943E000C943E0044
S11300400C943E000C943E000C943E000C943E0034
S11300500C943E000C943E000C943E000C943E0024
S11300600C943E000C943E0011241FBECFEFD8E048
S1130070DEBFCDBF0E9440000C9465000C940000CC
S113008084B1806284B985B18F7D85B987B180627E
S113009087B988B1806288B98AB1877F8AB98BB100
S11300A088608BB94B99FECF95B180E2982795B9BA
S11300B098B1892788B92FEF89E698E121508040CB
S11100C09040E1F700C00000EDCFF894FFCFB0
S9030000FC
