S00B00006C63642E73726563E6
S11300000C9434000C9451000C9451000C94510045
S11300100C9451000C9451000C9451000C94510018
S11300200C9451000C94BD010C9451000C9451009B
S11300300C9451000C9451000C9451000C945100F8
S11300400C9451000C9451000C9451000C945100E8
S11300500C9451000C9451000C9451000C945100D8
S11300600C9451000C94510011241FBECFEFD8E022
S1130070DEBFCDBF11E0A0E0B1E0EAEFF4E002C0E2
S113008005900D92AC34B107D9F721E0ACE4B1E0AE
S113009001C01D92AF34B207E1F70E944C010C94E9
S11300A07B020C94000085B1826085B985E08A9555
S11300B0F1F7000085B18D7F85B90895CF93C82FDE
S11300C0662321F085B1816085B903C085B18E7F37
S11300D085B98AB180618AB98AB180628AB98AB1E4
S11300E080648AB98AB180688AB98BB18F778BB9F9
S11300F08BB18F7B8BB98BB18F7D8BB98BB18F7E9D
S11301008BB9CC231CF48BB180688BB9C6FF03C0B8
S11301108BB180648BB9C5FF03C08BB180628BB98E
S1130120C4FF03C08BB180618BB90E9453008BB1B3
S11301308F778BB98BB18F7B8BB98BB18F7D8BB95B
S11301408BB18F7E8BB9C3FF03C08BB180688BB931
S1130150C2FF03C08BB180648BB9C1FF03C08BB1F4
S113016080628BB9C0FF03C08BB180618BB90E94E0
S113017053008BB180618BB98BB180628BB98BB129
S113018080648BB98BB180688BB987EB9BE0019756
S1130190F1F700C00000CF91089560E00E945E0076
S11301A0089561E00E945E000895611104C08058C2
S11301B00E94CD00089580540E94CD00089581E0EE
S11301C00E94CD00089561E00E945E000895CF93DF
S11301D0DF93FC0103C00E94E300FE01EF012196BE
S11301E080818111F8CFDF91CF910895CF93C82FEB
S11301F084B1816084B98AB180628AB984B1826031
S113020084B98AB180618AB98AB180628AB98AB1B3
S113021080648AB98AB180688AB98FEF99EF0197AF
S1130220F1F700C000008BB180628BB98BB18061A3
S11302308BB90E9453008FE19EE40197F1F700C04F
S113024000000E9453008FEF90E00197F1F700C087
S113025000000E9453008FEF90E00197F1F700C077
S113026000008BB18F7E8BB90E9453008FEF90E01A
S11302700197F1F700C0000088E20E94CD0088E0F9
S11302800E94CD000E94DF0086E00E94CD008C2FEA
S11302900E94CD00CF910895CF93DF93CDB7DEB701
S11302A0C054D1090FB6F894DEBF0FBECDBF8CE0A9
S11302B00E94F60080E4E0E0F1E0DE011196019096
S11302C00D928A95E1F760E081E00E94D50080E418
S11302D091E00E94E70061E08BE00E94D50083E694
S11302E00E94E30080E40E94CD0010E00AC0E1E037
S11302F0F0E0EC0FFD1FE10FF11D80810E94D100A1
S11303001F5F1034A0F380E80E94CD0080E00E94BB
S1130310E30061E08CE00E94D50081E00E94E300EC
S113032082E00E94E30061E081E00E94D50087E062
S11303300E94E30086E00E94E30085E00E94E3005F
S113034084E00E94E30083E00E94E300E1EBF0E03C
S1130350808187608083E0E7F0E080818160808332
S113036085B58D7F85BD85B5856085BDEEE6F0E0FC
S11303708081816080837894FFCF1F920F920FB6A3
S11303800F9211242F933F934F935F936F937F9317
S11303908F939F93AF93BF93EF93FF93CF93DF9389
S11303A0CDB7DEB72697DEBFCDBF80E290E29A8359
S11303B089839C838B839E838D8380914E018F5F81
S11303C080934E01863008F448C010924E0180910B
S11303D04D018F5F80934D018A30F0F010924D01F2
S11303E080914C018F5F80934C018C3310F01092FC
S11303F04C0180914C014AE0BE016D5F7F4F889FA4
S1130400C00111240E94460260E08BE00E94D500E6
S1130410CE0103960E94E70060E087E00E94D500C9
S113042080914D01805D0E94E30080914C014AE07F
S1130430BE016F5F7F4F90E00E94460260E084E05F
S11304400E94D50080914C018A3018F480E30E9408
S1130450E300CE0101960E94E70026960FB6F894B9
S1130460DEBF0FBECDBFDF91CF91FF91EF91BF9162
S1130470AF919F918F917F916F915F914F913F9138
S11304802F910F900FBE0F901F901895BB274A30E5
S113049031F4992322F4BDE2909581959F4F0C94F9
S11304A05202BB27FB015527AA27880F991FAA1FB1
S11304B0A41710F0A41B83955051B9F7A05DAA337B
S11304C008F0A95DA193009779F7B111B193119246
S11304D0CB010C946B02DC01FC01672F7191772333
S11304E0E1F7329704C07C916D9370836291AE17EB
S10D04F0BF07C8F30895F894FFCF86
S11304FA070E1C181C0E07031515150E0404040414
S113050A150A150A150A150A1010101010101010E1
S113051A18181818181818181C1C1C1C1C1C1C1C2D
S113052A1E1E1E1E1E1E1E1E1F1F1F1F1F1F1F1FD5
S10F053A30303A30302E30202020610098
S9030000FC
