S01200006D6F7273655F636F64652E73726563F2
S11300000C9434000C943E000C943E000C943E007E
S11300100C943E000C943E000C943E000C943E0064
S11300200C943E000C943E000C943E000C943E0054
S11300300C943E000C943E000C943E000C943E0044
S11300400C943E000C943E000C943E000C943E0034
S11300500C943E000C943E000C943E000C943E0024
S11300600C943E000C943E0011241FBECFEFD8E048
S1130070DEBFCDBF0E9440000C9478000C940000B9
S113008084B1806284B985B18F7D85B92FEF34E363
S11300908CE0215030408040E1F700C0000095B171
S11300A080E2982795B99FEF23ED30E391502040EB
S11300B03040E1F700C0000095B1982795B99FEF53
S11300C024E33CE0915020403040E1F700C00000C0
S11300D095B1982795B99FEF24E33CE091502040D7
S11300E03040E1F700C0000095B1892785B9CECF33
S10700F0F894FFCFAE
S9030000FC
