S01D0000736576656E5F7365676D656E745F646973706C61792E737265633F
S11300000C9434000C9451000C9451000C94510045
S11300100C9451000C9451000C9451000C94510018
S11300200C9451000C9451000C9451000C94510008
S11300300C9451000C9494000C9451000C945100B5
S11300400C94B6000C9451000C9451000C94510083
S11300500C9451000C9451000C9451000C945100D8
S11300600C9451000C94510011241FBECFEFD8E022
S1130070DEBFCDBF11E0A0E0B1E0EAEEF2E002C0E5
S113008005900D92AE30B107D9F721E0AEE0B1E0B2
S113009001C01D92A131B207E1F70E9478000C94CF
S11300A073010C940000FC01408121E030E002C0A7
S11300B0220F331F6A95E2F7242B20830895FC0155
S11300C0908121E030E002C0220F331F6A95E2F7ED
S11300D02095292320830895FC01408121E030E00C
S11300E002C0220F331F6A95E2F7242B2083089560
S11300F00E94EC00E1E8F0E080818B7F80838081C6
S113010083608083EFE6F0E080818160808385B541
S11301108C7F85BD85B5846085BDEEE6F0E0808189
S1130120816080837894FFCF1F920F920FB60F9255
S113013011248F93809110018F5F8093100180911F
S113014010018A3068F01092100180910F018F5FC6
S113015080930F0180910F01863010F010920F01EF
S11301608F910F900FBE0F901F9018951F920F92B2
S11301700FB60F9211242F933F934F935F936F9376
S11301807F938F939F93AF93BF93EF93FF9380914C
S11301900E018F5F80930E01823040F010920E01A9
S11301A08091100161E00E94FC0005C080910F0164
S11301B062E00E94FC00FF91EF91BF91AF919F918B
S11301C08F917F916F915F914F913F912F910F90FC
S11301D00FBE0F901F90189564E08AE290E00E9491
S11301E0530067E08AE290E00E94530060E084E2FA
S11301F090E00E94530008951F93CF93DF93E82F5C
S1130200F0E0EC5FFE4F1081E62FF0E0E050FF4F8E
S1130210D08164E08BE290E00E945F0067E08BE2B3
S113022090E00E945F0060E085E290E00E945F0041
S113023085E08A95F1F70000C0E021C010FD06C0FA
S113024060E085E290E00E945F0005C060E085E226
S113025090E00E946C0085E08A95F1F7000067E069
S11302608BE290E00E946C0085E08A95F1F7000033
S113027067E08BE290E00E945F001695CF5FC83084
S1130280E8F2C0E021C0D0FD06C060E085E290E065
S11302900E945F0005C060E085E290E00E946C006F
S11302A085E08A95F1F7000067E08BE290E00E9418
S11302B06C0085E08A95F1F7000067E08BE290E03E
S11302C00E945F00D695CF5FC830E8F264E08BE20D
S11302D090E00E946C0085E08A95F1F70000DF91C0
S10D02E0CF911F910895F894FFCF09
S11102EA10204080039F250D9949411F0119E2
S9030000FC
