S01400006B6E696768745F72696465722E7372656316
S11300000C9434000C943E000C943E000C943E007E
S11300100C943E000C943E000C943E000C943E0064
S11300200C943E000C943E000C943E000C943E0054
S11300300C943E000C943E000C943E000C943E0044
S11300400C943E000C943E000C943E000C943E0034
S11300500C943E000C943E000C943E000C943E0024
S11300600C943E000C943E0011241FBECFEFD8E048
S1130070DEBFCDBF0E9440000C945C000C940000D5
S113008087B1806287B988B18F7D88B98AB18B7F47
S11300908AB98BB184608BB92FEF89E698E121503E
S11300A080409040E1F700C000004A99F5CF98B134
S10F00B080E2892788B9F0CFF894FFCFD4
S9030000FC
